{
  "_format": "hh-sol-artifact-1",
  "contractName": "WavePortal",
  "sourceName": "contracts/WavePortal.sol",
  "abi": [
    {
      "inputs": [],
      "stateMutability": "payable",
      "type": "constructor"
    },
    {
      "anonymous": false,
      "inputs": [
        {
          "indexed": true,
          "internalType": "address",
          "name": "from",
          "type": "address"
        },
        {
          "indexed": false,
          "internalType": "uint256",
          "name": "timestamp",
          "type": "uint256"
        },
        {
          "indexed": false,
          "internalType": "string",
          "name": "message",
          "type": "string"
        }
      ],
      "name": "NewWave",
      "type": "event"
    },
    {
      "inputs": [],
      "name": "getAllWaves",
      "outputs": [
        {
          "components": [
            {
              "internalType": "address",
              "name": "waver",
              "type": "address"
            },
            {
              "internalType": "string",
              "name": "message",
              "type": "string"
            },
            {
              "internalType": "uint256",
              "name": "timestamp",
              "type": "uint256"
            }
          ],
          "internalType": "struct WavePortal.Wave[]",
          "name": "",
          "type": "tuple[]"
        }
      ],
      "stateMutability": "view",
      "type": "function"
    },
    {
      "inputs": [],
      "name": "getTotalWaves",
      "outputs": [
        {
          "internalType": "uint256",
          "name": "",
          "type": "uint256"
        }
      ],
      "stateMutability": "view",
      "type": "function"
    },
    {
      "inputs": [
        {
          "internalType": "address",
          "name": "",
          "type": "address"
        }
      ],
      "name": "lastWavedAt",
      "outputs": [
        {
          "internalType": "uint256",
          "name": "",
          "type": "uint256"
        }
      ],
      "stateMutability": "view",
      "type": "function"
    },
    {
      "inputs": [
        {
          "internalType": "string",
          "name": "_message",
          "type": "string"
        }
      ],
      "name": "wave",
      "outputs": [],
      "stateMutability": "nonpayable",
      "type": "function"
    }
  ],
  "bytecode": "0x60806040526200004f6040518060400160405280601c81526020017f437265617465642061206e657720736d61727420636f6e7472616374000000008152506200007760201b620005bf1760201c565b606444426200005f91906200017c565b6200006b9190620001e6565b600181905550620002dc565b62000117816040516024016200008e9190620002b8565b6040516020818303038152906040527f41304fac000000000000000000000000000000000000000000000000000000007bffffffffffffffffffffffffffffffffffffffffffffffffffffffff19166020820180517bffffffffffffffffffffffffffffffffffffffffffffffffffffffff83818316178352505050506200011a60201b60201c565b50565b60008151905060006a636f6e736f6c652e6c6f679050602083016000808483855afa5050505050565b6000819050919050565b7f4e487b7100000000000000000000000000000000000000000000000000000000600052601160045260246000fd5b6000620001898262000143565b9150620001968362000143565b9250828201905080821115620001b157620001b06200014d565b5b92915050565b7f4e487b7100000000000000000000000000000000000000000000000000000000600052601260045260246000fd5b6000620001f38262000143565b9150620002008362000143565b925082620002135762000212620001b7565b5b828206905092915050565b600081519050919050565b600082825260208201905092915050565b60005b838110156200025a5780820151818401526020810190506200023d565b60008484015250505050565b6000601f19601f8301169050919050565b600062000284826200021e565b62000290818562000229565b9350620002a28185602086016200023a565b620002ad8162000266565b840191505092915050565b60006020820190508181036000830152620002d4818462000277565b905092915050565b6111fe80620002ec6000396000f3fe608060405234801561001057600080fd5b506004361061004c5760003560e01c8063449d46c0146100515780639a2cdc081461006d578063a42a46631461008b578063bd43a908146100bb575b600080fd5b61006b60048036038101906100669190610877565b6100d9565b005b61007561044d565b60405161008291906108d9565b60405180910390f35b6100a560048036038101906100a09190610952565b610456565b6040516100b291906108d9565b60405180910390f35b6100c361046e565b6040516100d09190610b2e565b60405180910390f35b42601e600260003373ffffffffffffffffffffffffffffffffffffffff1673ffffffffffffffffffffffffffffffffffffffff168152602001908152602001600020546101269190610b7f565b10610166576040517f08c379a000000000000000000000000000000000000000000000000000000000815260040161015d90610c36565b60405180910390fd5b42600260003373ffffffffffffffffffffffffffffffffffffffff1673ffffffffffffffffffffffffffffffffffffffff1681526020019081526020016000208190555060016000808282546101bc9190610b7f565b92505081905550600360405180606001604052803373ffffffffffffffffffffffffffffffffffffffff16815260200183815260200142815250908060018154018082558091505060019003906000526020600020906003020160009091909190915060008201518160000160006101000a81548173ffffffffffffffffffffffffffffffffffffffff021916908373ffffffffffffffffffffffffffffffffffffffff160217905550602082015181600101908161027b9190610e62565b50604082015181600201555050606460015442446102999190610b7f565b6102a39190610b7f565b6102ad9190610f63565b600181905550603260015410156103fa576102fd6040518060400160405280600781526020017f257320776f6e210000000000000000000000000000000000000000000000000081525033610658565b6000655af3107a400090504781111561034b576040517f08c379a000000000000000000000000000000000000000000000000000000000815260040161034290611006565b60405180910390fd5b60003373ffffffffffffffffffffffffffffffffffffffff168260405161037190611057565b60006040518083038185875af1925050503d80600081146103ae576040519150601f19603f3d011682016040523d82523d6000602084013e6103b3565b606091505b50509050806103f7576040517f08c379a00000000000000000000000000000000000000000000000000000000081526004016103ee906110de565b60405180910390fd5b50505b3373ffffffffffffffffffffffffffffffffffffffff167f5f7e16dc676677766a70e9c5628aa6c54ddb8b6e5188e2ae1e1f17f1ffbea7164283604051610442929190611137565b60405180910390a250565b60008054905090565b60026020528060005260406000206000915090505481565b60606003805480602002602001604051908101604052809291908181526020016000905b828210156105b657838290600052602060002090600302016040518060600160405290816000820160009054906101000a900473ffffffffffffffffffffffffffffffffffffffff1673ffffffffffffffffffffffffffffffffffffffff1673ffffffffffffffffffffffffffffffffffffffff16815260200160018201805461051b90610c85565b80601f016020809104026020016040519081016040528092919081815260200182805461054790610c85565b80156105945780601f1061056957610100808354040283529160200191610594565b820191906000526020600020905b81548152906001019060200180831161057757829003601f168201915b5050505050815260200160028201548152505081526020019060010190610492565b50505050905090565b610655816040516024016105d39190611167565b6040516020818303038152906040527f41304fac000000000000000000000000000000000000000000000000000000007bffffffffffffffffffffffffffffffffffffffffffffffffffffffff19166020820180517bffffffffffffffffffffffffffffffffffffffffffffffffffffffff83818316178352505050506106f4565b50565b6106f0828260405160240161066e929190611198565b6040516020818303038152906040527f319af333000000000000000000000000000000000000000000000000000000007bffffffffffffffffffffffffffffffffffffffffffffffffffffffff19166020820180517bffffffffffffffffffffffffffffffffffffffffffffffffffffffff83818316178352505050506106f4565b5050565b60008151905060006a636f6e736f6c652e6c6f679050602083016000808483855afa5050505050565b6000604051905090565b600080fd5b600080fd5b600080fd5b600080fd5b6000601f19601f8301169050919050565b7f4e487b7100000000000000000000000000000000000000000000000000000000600052604160045260246000fd5b6107848261073b565b810181811067ffffffffffffffff821117156107a3576107a261074c565b5b80604052505050565b60006107b661071d565b90506107c2828261077b565b919050565b600067ffffffffffffffff8211156107e2576107e161074c565b5b6107eb8261073b565b9050602081019050919050565b82818337600083830152505050565b600061081a610815846107c7565b6107ac565b90508281526020810184848401111561083657610835610736565b5b6108418482856107f8565b509392505050565b600082601f83011261085e5761085d610731565b5b813561086e848260208601610807565b91505092915050565b60006020828403121561088d5761088c610727565b5b600082013567ffffffffffffffff8111156108ab576108aa61072c565b5b6108b784828501610849565b91505092915050565b6000819050919050565b6108d3816108c0565b82525050565b60006020820190506108ee60008301846108ca565b92915050565b600073ffffffffffffffffffffffffffffffffffffffff82169050919050565b600061091f826108f4565b9050919050565b61092f81610914565b811461093a57600080fd5b50565b60008135905061094c81610926565b92915050565b60006020828403121561096857610967610727565b5b60006109768482850161093d565b91505092915050565b600081519050919050565b600082825260208201905092915050565b6000819050602082019050919050565b6109b481610914565b82525050565b600081519050919050565b600082825260208201905092915050565b60005b838110156109f45780820151818401526020810190506109d9565b60008484015250505050565b6000610a0b826109ba565b610a1581856109c5565b9350610a258185602086016109d6565b610a2e8161073b565b840191505092915050565b610a42816108c0565b82525050565b6000606083016000830151610a6060008601826109ab565b5060208301518482036020860152610a788282610a00565b9150506040830151610a8d6040860182610a39565b508091505092915050565b6000610aa48383610a48565b905092915050565b6000602082019050919050565b6000610ac48261097f565b610ace818561098a565b935083602082028501610ae08561099b565b8060005b85811015610b1c5784840389528151610afd8582610a98565b9450610b0883610aac565b925060208a01995050600181019050610ae4565b50829750879550505050505092915050565b60006020820190508181036000830152610b488184610ab9565b905092915050565b7f4e487b7100000000000000000000000000000000000000000000000000000000600052601160045260246000fd5b6000610b8a826108c0565b9150610b95836108c0565b9250828201905080821115610bad57610bac610b50565b5b92915050565b600082825260208201905092915050565b7f4d7573742077616974203330207365636f6e6473206265666f7265207761766960008201527f6e6720616761696e2e0000000000000000000000000000000000000000000000602082015250565b6000610c20602983610bb3565b9150610c2b82610bc4565b604082019050919050565b60006020820190508181036000830152610c4f81610c13565b9050919050565b7f4e487b7100000000000000000000000000000000000000000000000000000000600052602260045260246000fd5b60006002820490506001821680610c9d57607f821691505b602082108103610cb057610caf610c56565b5b50919050565b60008190508160005260206000209050919050565b60006020601f8301049050919050565b600082821b905092915050565b600060088302610d187fffffffffffffffffffffffffffffffffffffffffffffffffffffffffffffffff82610cdb565b610d228683610cdb565b95508019841693508086168417925050509392505050565b6000819050919050565b6000610d5f610d5a610d55846108c0565b610d3a565b6108c0565b9050919050565b6000819050919050565b610d7983610d44565b610d8d610d8582610d66565b848454610ce8565b825550505050565b600090565b610da2610d95565b610dad818484610d70565b505050565b5b81811015610dd157610dc6600082610d9a565b600181019050610db3565b5050565b601f821115610e1657610de781610cb6565b610df084610ccb565b81016020851015610dff578190505b610e13610e0b85610ccb565b830182610db2565b50505b505050565b600082821c905092915050565b6000610e3960001984600802610e1b565b1980831691505092915050565b6000610e528383610e28565b9150826002028217905092915050565b610e6b826109ba565b67ffffffffffffffff811115610e8457610e8361074c565b5b610e8e8254610c85565b610e99828285610dd5565b600060209050601f831160018114610ecc5760008415610eba578287015190505b610ec48582610e46565b865550610f2c565b601f198416610eda86610cb6565b60005b82811015610f0257848901518255600182019150602085019450602081019050610edd565b86831015610f1f5784890151610f1b601f891682610e28565b8355505b6001600288020188555050505b505050505050565b7f4e487b7100000000000000000000000000000000000000000000000000000000600052601260045260246000fd5b6000610f6e826108c0565b9150610f79836108c0565b925082610f8957610f88610f34565b5b828206905092915050565b7f547279696e6720746f207769746864726177206d6f7265206d6f6e657920746860008201527f616e2074686520636f6e7472616374206861732e000000000000000000000000602082015250565b6000610ff0603483610bb3565b9150610ffb82610f94565b604082019050919050565b6000602082019050818103600083015261101f81610fe3565b9050919050565b600081905092915050565b50565b6000611041600083611026565b915061104c82611031565b600082019050919050565b600061106282611034565b9150819050919050565b7f4661696c656420746f207769746864726177206d6f6e65792066726f6d20636f60008201527f6e74726163742e00000000000000000000000000000000000000000000000000602082015250565b60006110c8602783610bb3565b91506110d38261106c565b604082019050919050565b600060208201905081810360008301526110f7816110bb565b9050919050565b6000611109826109ba565b6111138185610bb3565b93506111238185602086016109d6565b61112c8161073b565b840191505092915050565b600060408201905061114c60008301856108ca565b818103602083015261115e81846110fe565b90509392505050565b6000602082019050818103600083015261118181846110fe565b905092915050565b61119281610914565b82525050565b600060408201905081810360008301526111b281856110fe565b90506111c16020830184611189565b939250505056fea2646970667358221220c0d122dc62f04f2aa544909af7f962844b42ec29d12b93d24d83245c5d7d550464736f6c63430008110033",
  "linkReferences": {},
  "deployedLinkReferences": {}
}